{
  "address": "0xC02E5263dB9BE4f964888e9C24024Ca08f6347a6",
  "abi": [
    {
      "inputs": [
        {
          "internalType": "address",
          "name": "_owner",
          "type": "address"
        }
      ],
      "stateMutability": "nonpayable",
      "type": "constructor"
    },
    {
      "anonymous": false,
      "inputs": [
        {
          "indexed": true,
          "internalType": "uint256",
          "name": "itemId",
          "type": "uint256"
        },
        {
          "indexed": false,
          "internalType": "uint256",
          "name": "newInventory",
          "type": "uint256"
        }
      ],
      "name": "InventoryUpdated",
      "type": "event"
    },
    {
      "anonymous": false,
      "inputs": [
        {
          "indexed": true,
          "internalType": "uint256",
          "name": "itemId",
          "type": "uint256"
        },
        {
          "indexed": false,
          "internalType": "string",
          "name": "name",
          "type": "string"
        },
        {
          "indexed": false,
          "internalType": "uint256",
          "name": "price",
          "type": "uint256"
        },
        {
          "indexed": false,
          "internalType": "enum FoodTruck.ItemType",
          "name": "itemType",
          "type": "uint8"
        }
      ],
      "name": "ItemAdded",
      "type": "event"
    },
    {
      "anonymous": false,
      "inputs": [
        {
          "indexed": true,
          "internalType": "uint256",
          "name": "itemId",
          "type": "uint256"
        },
        {
          "indexed": false,
          "internalType": "string",
          "name": "name",
          "type": "string"
        },
        {
          "indexed": false,
          "internalType": "uint256",
          "name": "price",
          "type": "uint256"
        },
        {
          "indexed": false,
          "internalType": "uint256",
          "name": "inventory",
          "type": "uint256"
        },
        {
          "indexed": false,
          "internalType": "bool",
          "name": "isAvailable",
          "type": "bool"
        }
      ],
      "name": "ItemUpdated",
      "type": "event"
    },
    {
      "anonymous": false,
      "inputs": [
        {
          "indexed": true,
          "internalType": "uint256",
          "name": "orderId",
          "type": "uint256"
        }
      ],
      "name": "OrderFulfilled",
      "type": "event"
    },
    {
      "anonymous": false,
      "inputs": [
        {
          "indexed": true,
          "internalType": "uint256",
          "name": "orderId",
          "type": "uint256"
        },
        {
          "indexed": true,
          "internalType": "address",
          "name": "customer",
          "type": "address"
        },
        {
          "indexed": false,
          "internalType": "uint256",
          "name": "totalPrice",
          "type": "uint256"
        }
      ],
      "name": "OrderPlaced",
      "type": "event"
    },
    {
      "inputs": [
        {
          "internalType": "string",
          "name": "_name",
          "type": "string"
        },
        {
          "internalType": "uint256",
          "name": "_price",
          "type": "uint256"
        },
        {
          "internalType": "uint256",
          "name": "_inventory",
          "type": "uint256"
        },
        {
          "internalType": "enum FoodTruck.ItemType",
          "name": "_itemType",
          "type": "uint8"
        }
      ],
      "name": "addMenuItem",
      "outputs": [],
      "stateMutability": "nonpayable",
      "type": "function"
    },
    {
      "inputs": [
        {
          "internalType": "uint256",
          "name": "_orderId",
          "type": "uint256"
        }
      ],
      "name": "fulfillOrder",
      "outputs": [],
      "stateMutability": "nonpayable",
      "type": "function"
    },
    {
      "inputs": [],
      "name": "getAllMenuItems",
      "outputs": [
        {
          "components": [
            {
              "internalType": "string",
              "name": "name",
              "type": "string"
            },
            {
              "internalType": "uint256",
              "name": "price",
              "type": "uint256"
            },
            {
              "internalType": "uint256",
              "name": "inventory",
              "type": "uint256"
            },
            {
              "internalType": "enum FoodTruck.ItemType",
              "name": "itemType",
              "type": "uint8"
            },
            {
              "internalType": "bool",
              "name": "isAvailable",
              "type": "bool"
            }
          ],
          "internalType": "struct FoodTruck.MenuItem[]",
          "name": "",
          "type": "tuple[]"
        }
      ],
      "stateMutability": "view",
      "type": "function"
    },
    {
      "inputs": [
        {
          "internalType": "enum FoodTruck.ItemType",
          "name": "_itemType",
          "type": "uint8"
        }
      ],
      "name": "getMenuItemsByType",
      "outputs": [
        {
          "components": [
            {
              "internalType": "string",
              "name": "name",
              "type": "string"
            },
            {
              "internalType": "uint256",
              "name": "price",
              "type": "uint256"
            },
            {
              "internalType": "uint256",
              "name": "inventory",
              "type": "uint256"
            },
            {
              "internalType": "enum FoodTruck.ItemType",
              "name": "itemType",
              "type": "uint8"
            },
            {
              "internalType": "bool",
              "name": "isAvailable",
              "type": "bool"
            }
          ],
          "internalType": "struct FoodTruck.MenuItem[]",
          "name": "",
          "type": "tuple[]"
        }
      ],
      "stateMutability": "view",
      "type": "function"
    },
    {
      "inputs": [],
      "name": "menuItemCount",
      "outputs": [
        {
          "internalType": "uint256",
          "name": "",
          "type": "uint256"
        }
      ],
      "stateMutability": "view",
      "type": "function"
    },
    {
      "inputs": [
        {
          "internalType": "uint256",
          "name": "",
          "type": "uint256"
        }
      ],
      "name": "menuItems",
      "outputs": [
        {
          "internalType": "string",
          "name": "name",
          "type": "string"
        },
        {
          "internalType": "uint256",
          "name": "price",
          "type": "uint256"
        },
        {
          "internalType": "uint256",
          "name": "inventory",
          "type": "uint256"
        },
        {
          "internalType": "enum FoodTruck.ItemType",
          "name": "itemType",
          "type": "uint8"
        },
        {
          "internalType": "bool",
          "name": "isAvailable",
          "type": "bool"
        }
      ],
      "stateMutability": "view",
      "type": "function"
    },
    {
      "inputs": [],
      "name": "orderCount",
      "outputs": [
        {
          "internalType": "uint256",
          "name": "",
          "type": "uint256"
        }
      ],
      "stateMutability": "view",
      "type": "function"
    },
    {
      "inputs": [
        {
          "internalType": "uint256",
          "name": "",
          "type": "uint256"
        }
      ],
      "name": "orders",
      "outputs": [
        {
          "internalType": "address",
          "name": "customer",
          "type": "address"
        },
        {
          "internalType": "uint256",
          "name": "totalPrice",
          "type": "uint256"
        },
        {
          "internalType": "uint256",
          "name": "timestamp",
          "type": "uint256"
        },
        {
          "internalType": "bool",
          "name": "fulfilled",
          "type": "bool"
        }
      ],
      "stateMutability": "view",
      "type": "function"
    },
    {
      "inputs": [],
      "name": "owner",
      "outputs": [
        {
          "internalType": "address",
          "name": "",
          "type": "address"
        }
      ],
      "stateMutability": "view",
      "type": "function"
    },
    {
      "inputs": [
        {
          "internalType": "uint256[]",
          "name": "_itemIds",
          "type": "uint256[]"
        },
        {
          "internalType": "uint256[]",
          "name": "_quantities",
          "type": "uint256[]"
        }
      ],
      "name": "placeOrder",
      "outputs": [
        {
          "internalType": "uint256",
          "name": "",
          "type": "uint256"
        }
      ],
      "stateMutability": "payable",
      "type": "function"
    },
    {
      "inputs": [
        {
          "internalType": "uint256",
          "name": "_itemId",
          "type": "uint256"
        },
        {
          "internalType": "bool",
          "name": "_isAvailable",
          "type": "bool"
        }
      ],
      "name": "setItemAvailability",
      "outputs": [],
      "stateMutability": "nonpayable",
      "type": "function"
    },
    {
      "inputs": [],
      "name": "totalRevenue",
      "outputs": [
        {
          "internalType": "uint256",
          "name": "",
          "type": "uint256"
        }
      ],
      "stateMutability": "view",
      "type": "function"
    },
    {
      "inputs": [
        {
          "internalType": "uint256",
          "name": "_itemId",
          "type": "uint256"
        },
        {
          "internalType": "uint256",
          "name": "_newInventory",
          "type": "uint256"
        }
      ],
      "name": "updateInventory",
      "outputs": [],
      "stateMutability": "nonpayable",
      "type": "function"
    },
    {
      "inputs": [
        {
          "internalType": "uint256",
          "name": "_itemId",
          "type": "uint256"
        },
        {
          "internalType": "string",
          "name": "_name",
          "type": "string"
        },
        {
          "internalType": "uint256",
          "name": "_price",
          "type": "uint256"
        },
        {
          "internalType": "uint256",
          "name": "_inventory",
          "type": "uint256"
        },
        {
          "internalType": "bool",
          "name": "_isAvailable",
          "type": "bool"
        }
      ],
      "name": "updateMenuItem",
      "outputs": [],
      "stateMutability": "nonpayable",
      "type": "function"
    },
    {
      "inputs": [],
      "name": "withdraw",
      "outputs": [],
      "stateMutability": "nonpayable",
      "type": "function"
    },
    {
      "stateMutability": "payable",
      "type": "receive"
    }
  ],
  "transactionHash": "0x4616c26a2bfe6b1d81e8fa3e0c0574dbe26ccd1823355cd1091ad7307e938f81",
  "args": [
    "0x417E6D64F28bd6FA5D00D757976c9bCF87D0cC3E"
  ],
  "numDeployments": 1,
  "solcInputHash": "fdb02a2122378ba1f5442b29ce41a704",
  "bytecode": "0x60a060405260006001556000600355600060045534801561001f57600080fd5b50604051611af5380380611af583398101604081905261003e9161004f565b6001600160a01b031660805261007f565b60006020828403121561006157600080fd5b81516001600160a01b038116811461007857600080fd5b9392505050565b608051611a2a6100cb600039600081816101fb0152818161035c015281816104c401528181610672015281816106f8015281816107ba0152818161087101526111db0152611a2a6000f3fe6080604052600436106100ec5760003560e01c80638da5cb5b1161008a578063c957859111610059578063c9578591146102d9578063d3452a6214610306578063e0890e4b1461031c578063e97d3af61461033157600080fd5b80638da5cb5b146101e95780639aff51c614610235578063a85c38ef14610248578063bf2d9e0b146102c357600080fd5b80632a5a8c63116100c65780632a5a8c63146101635780633ccfd60b14610194578063522547a8146101a95780636311e830146101c957600080fd5b806320f56cc6146100f8578063210b55361461011a5780632453ffa81461013a57600080fd5b366100f357005b600080fd5b34801561010457600080fd5b506101186101133660046113d0565b610351565b005b34801561012657600080fd5b50610118610135366004611441565b6104b9565b34801561014657600080fd5b5061015060035481565b6040519081526020015b60405180910390f35b34801561016f57600080fd5b5061018361017e3660046114ac565b6105a9565b60405161015a959493929190611543565b3480156101a057600080fd5b50610118610667565b3480156101b557600080fd5b506101186101c4366004611583565b6107af565b3480156101d557600080fd5b506101186101e43660046114ac565b610866565b3480156101f557600080fd5b5061021d7f000000000000000000000000000000000000000000000000000000000000000081565b6040516001600160a01b03909116815260200161015a565b610150610243366004611625565b610997565b34801561025457600080fd5b506102976102633660046114ac565b60026020526000908152604090208054600382015460048301546005909301546001600160a01b0390921692909160ff1684565b604080516001600160a01b0390951685526020850193909352918301521515606082015260800161015a565b3480156102cf57600080fd5b5061015060045481565b3480156102e557600080fd5b506102f96102f4366004611689565b610dca565b60405161015a91906116ab565b34801561031257600080fd5b5061015060015481565b34801561032857600080fd5b506102f961102a565b34801561033d57600080fd5b5061011861034c36600461174d565b6111d0565b336001600160a01b037f000000000000000000000000000000000000000000000000000000000000000016146103a25760405162461bcd60e51b815260040161039990611779565b60405180910390fd5b6040518060a001604052808581526020018481526020018381526020018260028111156103d1576103d161150b565b8152600160209182018190525460009081529081905260409020815181906103f99082611824565b50602082015181600101556040820151816002015560608201518160030160006101000a81548160ff021916908360028111156104385761043861150b565b021790555060809190910151600390910180549115156101000261ff00199092169190911790556001546040517fa05689a567d714046b33bdb2695e1a9528bb0208cf55085bde4eb3a442898c1390610496908790879086906118e4565b60405180910390a2600180549060006104ae8361192a565b919050555050505050565b336001600160a01b037f000000000000000000000000000000000000000000000000000000000000000016146105015760405162461bcd60e51b815260040161039990611779565b8460015481106105235760405162461bcd60e51b815260040161039990611943565b60008681526020819052604090208061053c8782611824565b50600181018590556002810184905560038101805461ff0019166101008515150217905560405187907fc122feb53e80db09fbf3557b844bd93ca6a93c19c7b7e31e92714b33f875ed1390610598908990899089908990611970565b60405180910390a250505050505050565b6000602081905290815260409020805481906105c4906117a1565b80601f01602080910402602001604051908101604052809291908181526020018280546105f0906117a1565b801561063d5780601f106106125761010080835404028352916020019161063d565b820191906000526020600020905b81548152906001019060200180831161062057829003601f168201915b50505050600183015460028401546003909401549293909290915060ff8082169161010090041685565b336001600160a01b037f000000000000000000000000000000000000000000000000000000000000000016146106af5760405162461bcd60e51b815260040161039990611779565b47806106f45760405162461bcd60e51b81526020600482015260146024820152734e6f2066756e647320746f20776974686472617760601b6044820152606401610399565b60007f00000000000000000000000000000000000000000000000000000000000000006001600160a01b03168260405160006040518083038185875af1925050503d8060008114610761576040519150601f19603f3d011682016040523d82523d6000602084013e610766565b606091505b50509050806107ab5760405162461bcd60e51b815260206004820152601160248201527015da5d1a191c985dd85b0819985a5b1959607a1b6044820152606401610399565b5050565b336001600160a01b037f000000000000000000000000000000000000000000000000000000000000000016146107f75760405162461bcd60e51b815260040161039990611779565b8160015481106108195760405162461bcd60e51b815260040161039990611943565b60008381526020818152604091829020600201849055905183815284917fc3da32029c7581e1ff0ac81dbfdec1e6ffa311377c403de5640ea8ca50d8bc4b910160405180910390a2505050565b336001600160a01b037f000000000000000000000000000000000000000000000000000000000000000016146108ae5760405162461bcd60e51b815260040161039990611779565b60035481106108f65760405162461bcd60e51b815260206004820152601460248201527313dc99195c88191bd95cc81b9bdd08195e1a5cdd60621b6044820152606401610399565b6000818152600260205260409020600581015460ff16156109595760405162461bcd60e51b815260206004820152601760248201527f4f7264657220616c72656164792066756c66696c6c65640000000000000000006044820152606401610399565b60058101805460ff1916600117905560405182907fd276fbc5e545783825cac5416bad154c47e39daebf44589255a65b4f56cf3e0e90600090a25050565b6000808351116109f55760405162461bcd60e51b8152602060048201526024808201527f4f72646572206d75737420696e636c756465206174206c65617374206f6e65206044820152636974656d60e01b6064820152608401610399565b8151835114610a515760405162461bcd60e51b815260206004820152602260248201527f4974656d2049447320616e64207175616e746974696573206d757374206d61746044820152610c6d60f31b6064820152608401610399565b6000805b8451811015610bb2576000858281518110610a7257610a726119a1565b602002602001015190506000858381518110610a9057610a906119a1565b602002602001015190506001548210610abb5760405162461bcd60e51b815260040161039990611943565b60008281526020819052604090206003810154610100900460ff16610b1a5760405162461bcd60e51b81526020600482015260156024820152744974656d206973206e6f7420617661696c61626c6560581b6044820152606401610399565b8181600201541015610b655760405162461bcd60e51b81526020600482015260146024820152734e6f7420656e6f75676820696e76656e746f727960601b6044820152606401610399565b818160010154610b7591906119b7565b610b7f90866119ce565b945081816002016000828254610b9591906119e1565b925050819055505050508080610baa9061192a565b915050610a55565b5080341015610bfa5760405162461bcd60e51b8152602060048201526014602482015273125b9cdd59999a58da595b9d081c185e5b595b9d60621b6044820152606401610399565b6040805160c081018252338152602080820187815282840187905260608301859052426080840152600060a0840181905260035481526002835293909320825181546001600160a01b0319166001600160a01b0390911617815592518051929392610c6b9260018501920190611265565b5060408201518051610c87916002840191602090910190611265565b50606082015181600301556080820151816004015560a08201518160050160006101000a81548160ff0219169083151502179055509050508060046000828254610cd191906119ce565b909155505034811015610d6f57600033610ceb83346119e1565b604051600081818185875af1925050503d8060008114610d27576040519150601f19603f3d011682016040523d82523d6000602084013e610d2c565b606091505b5050905080610d6d5760405162461bcd60e51b815260206004820152600d60248201526c1499599d5b990819985a5b1959609a1b6044820152606401610399565b505b6003546040518281523391907f291c9d431146e4de667c04a6a738ed159e6dae2aaa909d85ca8ff7416719a6099060200160405180910390a3600380549081906000610dba8361192a565b9091555090925050505b92915050565b60606000805b600154811015610e3757836002811115610dec57610dec61150b565b60008281526020819052604090206003015460ff166002811115610e1257610e1261150b565b03610e255781610e218161192a565b9250505b80610e2f8161192a565b915050610dd0565b5060008167ffffffffffffffff811115610e5357610e53611305565b604051908082528060200260200182016040528015610e8c57816020015b610e796112b0565b815260200190600190039081610e715790505b5090506000805b60015481101561102057856002811115610eaf57610eaf61150b565b60008281526020819052604090206003015460ff166002811115610ed557610ed561150b565b0361100e5760008181526020819052604090819020815160a08101909252805482908290610f02906117a1565b80601f0160208091040260200160405190810160405280929190818152602001828054610f2e906117a1565b8015610f7b5780601f10610f5057610100808354040283529160200191610f7b565b820191906000526020600020905b815481529060010190602001808311610f5e57829003601f168201915b5050509183525050600182015460208201526002808301546040830152600383015460609092019160ff1690811115610fb657610fb661150b565b6002811115610fc757610fc761150b565b815260039190910154610100900460ff1615156020909101528351849084908110610ff457610ff46119a1565b6020026020010181905250818061100a9061192a565b9250505b806110188161192a565b915050610e93565b5090949350505050565b6060600060015467ffffffffffffffff81111561104957611049611305565b60405190808252806020026020018201604052801561108257816020015b61106f6112b0565b8152602001906001900390816110675790505b50905060005b6001548110156111ca5760008181526020819052604090819020815160a081019092528054829082906110ba906117a1565b80601f01602080910402602001604051908101604052809291908181526020018280546110e6906117a1565b80156111335780601f1061110857610100808354040283529160200191611133565b820191906000526020600020905b81548152906001019060200180831161111657829003601f168201915b5050509183525050600182015460208201526002808301546040830152600383015460609092019160ff169081111561116e5761116e61150b565b600281111561117f5761117f61150b565b815260039190910154610100900460ff16151560209091015282518390839081106111ac576111ac6119a1565b602002602001018190525080806111c29061192a565b915050611088565b50919050565b336001600160a01b037f000000000000000000000000000000000000000000000000000000000000000016146112185760405162461bcd60e51b815260040161039990611779565b81600154811061123a5760405162461bcd60e51b815260040161039990611943565b5060009182526020829052604090912060030180549115156101000261ff0019909216919091179055565b8280548282559060005260206000209081019282156112a0579160200282015b828111156112a0578251825591602001919060010190611285565b506112ac9291506112f0565b5090565b6040518060a00160405280606081526020016000815260200160008152602001600060028111156112e3576112e361150b565b8152600060209091015290565b5b808211156112ac57600081556001016112f1565b634e487b7160e01b600052604160045260246000fd5b604051601f8201601f1916810167ffffffffffffffff8111828210171561134457611344611305565b604052919050565b600082601f83011261135d57600080fd5b813567ffffffffffffffff81111561137757611377611305565b61138a601f8201601f191660200161131b565b81815284602083860101111561139f57600080fd5b816020850160208301376000918101602001919091529392505050565b8035600381106113cb57600080fd5b919050565b600080600080608085870312156113e657600080fd5b843567ffffffffffffffff8111156113fd57600080fd5b6114098782880161134c565b9450506020850135925060408501359150611426606086016113bc565b905092959194509250565b803580151581146113cb57600080fd5b600080600080600060a0868803121561145957600080fd5b85359450602086013567ffffffffffffffff81111561147757600080fd5b6114838882890161134c565b94505060408601359250606086013591506114a060808701611431565b90509295509295909350565b6000602082840312156114be57600080fd5b5035919050565b6000815180845260005b818110156114eb576020818501810151868301820152016114cf565b506000602082860101526020601f19601f83011685010191505092915050565b634e487b7160e01b600052602160045260246000fd5b6003811061153f57634e487b7160e01b600052602160045260246000fd5b9052565b60a08152600061155660a08301886114c5565b90508560208301528460408301526115716060830185611521565b82151560808301529695505050505050565b6000806040838503121561159657600080fd5b50508035926020909101359150565b600082601f8301126115b657600080fd5b8135602067ffffffffffffffff8211156115d2576115d2611305565b8160051b6115e182820161131b565b92835284810182019282810190878511156115fb57600080fd5b83870192505b8483101561161a57823582529183019190830190611601565b979650505050505050565b6000806040838503121561163857600080fd5b823567ffffffffffffffff8082111561165057600080fd5b61165c868387016115a5565b9350602085013591508082111561167257600080fd5b5061167f858286016115a5565b9150509250929050565b60006020828403121561169b57600080fd5b6116a4826113bc565b9392505050565b60006020808301818452808551808352604092508286019150828160051b87010184880160005b8381101561173f57603f19898403018552815160a081518186526116f8828701826114c5565b9150508882015189860152878201518886015260608083015161171d82880182611521565b50506080918201511515949091019390935293860193908601906001016116d2565b509098975050505050505050565b6000806040838503121561176057600080fd5b8235915061177060208401611431565b90509250929050565b6020808252600e908201526d139bdd08185d5d1a1bdc9a5e995960921b604082015260600190565b600181811c908216806117b557607f821691505b6020821081036111ca57634e487b7160e01b600052602260045260246000fd5b601f82111561181f57600081815260208120601f850160051c810160208610156117fc5750805b601f850160051c820191505b8181101561181b57828155600101611808565b5050505b505050565b815167ffffffffffffffff81111561183e5761183e611305565b6118528161184c84546117a1565b846117d5565b602080601f831160018114611887576000841561186f5750858301515b600019600386901b1c1916600185901b17855561181b565b600085815260208120601f198616915b828110156118b657888601518255948401946001909101908401611897565b50858210156118d45787850151600019600388901b60f8161c191681555b5050505050600190811b01905550565b6060815260006118f760608301866114c5565b905083602083015261190c6040830184611521565b949350505050565b634e487b7160e01b600052601160045260246000fd5b60006001820161193c5761193c611914565b5060010190565b602080825260139082015272125d195b48191bd95cc81b9bdd08195e1a5cdd606a1b604082015260600190565b60808152600061198360808301876114c5565b60208301959095525060408101929092521515606090910152919050565b634e487b7160e01b600052603260045260246000fd5b8082028115828204841417610dc457610dc4611914565b80820180821115610dc457610dc4611914565b81810381811115610dc457610dc461191456fea2646970667358221220d55a9d2b210021471aa71ac51831881b433868257dcda4f1feb60a297712ef6564736f6c63430008140033",
  "devdoc": {
    "author": "Generated with Claude",
    "details": "A contract to manage a food truck business on the blockchain",
    "kind": "dev",
    "methods": {
      "addMenuItem(string,uint256,uint256,uint8)": {
        "details": "Add a new item to the menu",
        "params": {
          "_inventory": "Initial inventory quantity",
          "_itemType": "Type of item (0=Food, 1=Drink, 2=Dessert)",
          "_name": "Name of the item",
          "_price": "Price in wei"
        }
      },
      "fulfillOrder(uint256)": {
        "details": "Mark an order as fulfilled",
        "params": {
          "_orderId": "ID of the order to fulfill"
        }
      },
      "getAllMenuItems()": {
        "details": "Get all menu items",
        "returns": {
          "_0": "All menu items in an array"
        }
      },
      "getMenuItemsByType(uint8)": {
        "details": "Get menu items by type",
        "params": {
          "_itemType": "Type of items to return"
        },
        "returns": {
          "_0": "Items of the specified type"
        }
      },
      "placeOrder(uint256[],uint256[])": {
        "details": "Place an order for multiple items",
        "params": {
          "_itemIds": "Array of item IDs",
          "_quantities": "Array of quantities for each item"
        }
      },
      "setItemAvailability(uint256,bool)": {
        "details": "Toggle availability of a menu item",
        "params": {
          "_isAvailable": "New availability status",
          "_itemId": "ID of the item"
        }
      },
      "updateInventory(uint256,uint256)": {
        "details": "Update inventory for an item",
        "params": {
          "_itemId": "ID of the item",
          "_newInventory": "New inventory level"
        }
      },
      "updateMenuItem(uint256,string,uint256,uint256,bool)": {
        "details": "Update an existing menu item",
        "params": {
          "_inventory": "New inventory level",
          "_isAvailable": "Availability status",
          "_itemId": "ID of the item to update",
          "_name": "New name",
          "_price": "New price"
        }
      },
      "withdraw()": {
        "details": "Withdraw funds from the contract"
      }
    },
    "title": "FoodTruck",
    "version": 1
  },
  "userdoc": {
    "kind": "user",
    "methods": {},
    "version": 1
  },
  "storageLayout": {
    "storage": [
      {
        "astId": 26,
        "contract": "contracts/FoodTruck.sol:FoodTruck",
        "label": "menuItems",
        "offset": 0,
        "slot": "0",
        "type": "t_mapping(t_uint256,t_struct(MenuItem)21_storage)"
      },
      {
        "astId": 29,
        "contract": "contracts/FoodTruck.sol:FoodTruck",
        "label": "menuItemCount",
        "offset": 0,
        "slot": "1",
        "type": "t_uint256"
      },
      {
        "astId": 49,
        "contract": "contracts/FoodTruck.sol:FoodTruck",
        "label": "orders",
        "offset": 0,
        "slot": "2",
        "type": "t_mapping(t_uint256,t_struct(Order)44_storage)"
      },
      {
        "astId": 52,
        "contract": "contracts/FoodTruck.sol:FoodTruck",
        "label": "orderCount",
        "offset": 0,
        "slot": "3",
        "type": "t_uint256"
      },
      {
        "astId": 55,
        "contract": "contracts/FoodTruck.sol:FoodTruck",
        "label": "totalRevenue",
        "offset": 0,
        "slot": "4",
        "type": "t_uint256"
      }
    ],
    "types": {
      "t_address": {
        "encoding": "inplace",
        "label": "address",
        "numberOfBytes": "20"
      },
      "t_array(t_uint256)dyn_storage": {
        "base": "t_uint256",
        "encoding": "dynamic_array",
        "label": "uint256[]",
        "numberOfBytes": "32"
      },
      "t_bool": {
        "encoding": "inplace",
        "label": "bool",
        "numberOfBytes": "1"
      },
      "t_enum(ItemType)9": {
        "encoding": "inplace",
        "label": "enum FoodTruck.ItemType",
        "numberOfBytes": "1"
      },
      "t_mapping(t_uint256,t_struct(MenuItem)21_storage)": {
        "encoding": "mapping",
        "key": "t_uint256",
        "label": "mapping(uint256 => struct FoodTruck.MenuItem)",
        "numberOfBytes": "32",
        "value": "t_struct(MenuItem)21_storage"
      },
      "t_mapping(t_uint256,t_struct(Order)44_storage)": {
        "encoding": "mapping",
        "key": "t_uint256",
        "label": "mapping(uint256 => struct FoodTruck.Order)",
        "numberOfBytes": "32",
        "value": "t_struct(Order)44_storage"
      },
      "t_string_storage": {
        "encoding": "bytes",
        "label": "string",
        "numberOfBytes": "32"
      },
      "t_struct(MenuItem)21_storage": {
        "encoding": "inplace",
        "label": "struct FoodTruck.MenuItem",
        "members": [
          {
            "astId": 11,
            "contract": "contracts/FoodTruck.sol:FoodTruck",
            "label": "name",
            "offset": 0,
            "slot": "0",
            "type": "t_string_storage"
          },
          {
            "astId": 13,
            "contract": "contracts/FoodTruck.sol:FoodTruck",
            "label": "price",
            "offset": 0,
            "slot": "1",
            "type": "t_uint256"
          },
          {
            "astId": 15,
            "contract": "contracts/FoodTruck.sol:FoodTruck",
            "label": "inventory",
            "offset": 0,
            "slot": "2",
            "type": "t_uint256"
          },
          {
            "astId": 18,
            "contract": "contracts/FoodTruck.sol:FoodTruck",
            "label": "itemType",
            "offset": 0,
            "slot": "3",
            "type": "t_enum(ItemType)9"
          },
          {
            "astId": 20,
            "contract": "contracts/FoodTruck.sol:FoodTruck",
            "label": "isAvailable",
            "offset": 1,
            "slot": "3",
            "type": "t_bool"
          }
        ],
        "numberOfBytes": "128"
      },
      "t_struct(Order)44_storage": {
        "encoding": "inplace",
        "label": "struct FoodTruck.Order",
        "members": [
          {
            "astId": 31,
            "contract": "contracts/FoodTruck.sol:FoodTruck",
            "label": "customer",
            "offset": 0,
            "slot": "0",
            "type": "t_address"
          },
          {
            "astId": 34,
            "contract": "contracts/FoodTruck.sol:FoodTruck",
            "label": "itemIds",
            "offset": 0,
            "slot": "1",
            "type": "t_array(t_uint256)dyn_storage"
          },
          {
            "astId": 37,
            "contract": "contracts/FoodTruck.sol:FoodTruck",
            "label": "quantities",
            "offset": 0,
            "slot": "2",
            "type": "t_array(t_uint256)dyn_storage"
          },
          {
            "astId": 39,
            "contract": "contracts/FoodTruck.sol:FoodTruck",
            "label": "totalPrice",
            "offset": 0,
            "slot": "3",
            "type": "t_uint256"
          },
          {
            "astId": 41,
            "contract": "contracts/FoodTruck.sol:FoodTruck",
            "label": "timestamp",
            "offset": 0,
            "slot": "4",
            "type": "t_uint256"
          },
          {
            "astId": 43,
            "contract": "contracts/FoodTruck.sol:FoodTruck",
            "label": "fulfilled",
            "offset": 0,
            "slot": "5",
            "type": "t_bool"
          }
        ],
        "numberOfBytes": "192"
      },
      "t_uint256": {
        "encoding": "inplace",
        "label": "uint256",
        "numberOfBytes": "32"
      }
    }
  }
}